:100000000C9461000C947E000C947E000C947E0095
:100010000C947E000C947E000C947E000C947E0068
:100020000C947E000C947E000C947E000C947E0058
:100030000C947E000C947E000C947E000C947E0048
:100040000C94A5010C947E000C947E000C947E0010
:100050000C947E000C947E000C947E000C947E0028
:100060000C947E000C947E0000000000230026000B
:10007000290000000000240027002A0000000000E2
:10008000250028002B0004040404040404040202D4
:100090000202020203030303030301020408102007
:1000A0004080010204081020010204081020000012
:1000B0000008000201000003040700000000000027
:1000C000000011241FBECFEFD8E0DEBFCDBF11E08E
:1000D000A0E0B1E0E8E0FDE002C005900D92A030A4
:1000E000B107D9F721E0A0E0B1E001C01D92AD3029
:1000F000B207E1F70E9434020C9482060C940000CF
:10010000833081F028F4813099F08230A9F008958D
:100110008730A9F08830C9F08430B1F48091800034
:100120008F7D03C0809180008F7780938000089539
:1001300084B58F7784BD089584B58F7DFBCF809182
:10014000B0008F778093B00008958091B0008F7DCC
:10015000F9CF1F93CF93DF93282F30E0F901E255B9
:10016000FF4F8491F901E656FF4FD491F901EA5708
:10017000FF4FC491CC23A9F0162F81110E9480005B
:10018000EC2FF0E0EE0FFF1FE458FF4FA591B49164
:100190008FB7F894EC91111108C0D095DE23DC9351
:1001A0008FBFDF91CF911F910895DE2BF8CFCF93B2
:1001B000DF9390E0FC01E656FF4F24918A579F4F52
:1001C000FC0184918823C9F090E0880F991FFC01FD
:1001D000EE58FF4FA591B491FC01E458FF4FC59133
:1001E000D49161110DC09FB7F8948C912095822312
:1001F0008C938881282328839FBFDF91CF91089516
:10020000623051F49FB7F8943C91822F80958323FC
:100210008C93E8812E2BEFCF8FB7F894EC912E2B97
:100220002C938FBFEACF1F93CF93DF93182FEB014F
:1002300061E00E94D700209739F460E0812FDF91C0
:10024000CF911F910C94A900CF3FD10511F461E02B
:10025000F5CFE12FF0E0E255FF4FE491E33031F1CB
:1002600040F4E130B1F0E230E1F0C038D1057CF784
:10027000E4CFE73029F1E83059F1E430B1F780916B
:100280008000806280938000D0938B00C0938A00AE
:1002900004C084B5806884BDC7BDDF91CF911F9134
:1002A000089584B5806284BDC8BDF7CF8091800079
:1002B000806880938000D0938900C0938800EDCF40
:1002C0008091B00080688093B000C093B300E5CF08
:1002D0008091B00080628093B000C093B400DDCF05
:1002E0003FB7F8948091090190910A01A0910B0108
:1002F000B0910C0126B5A89B05C02F3F19F00196BF
:10030000A11DB11D3FBFBA2FA92F982F8827BC016F
:10031000CD01620F711D811D911D42E0660F771F97
:10032000881F991F4A95D1F7089561E084E00E94E3
:10033000A90061E087E00C94A90060E084E00E94DD
:10034000A90060E087E00C94A9001F920F920FB6FD
:100350000F9211242F933F938F939F93AF93BF934B
:100360008091050190910601A0910701B0910801CB
:100370003091040123E0230F2D3758F50196A11D7C
:10038000B11D209304018093050190930601A09371
:100390000701B09308018091090190910A01A09191
:1003A0000B01B0910C010196A11DB11D80930901B3
:1003B00090930A01A0930B01B0930C01BF91AF91F0
:1003C0009F918F913F912F910F900FBE0F901F9093
:1003D000189526E8230F0296A11DB11DD2CFCF920A
:1003E000DF92EF92FF920F931F93E82FF92F05C032
:1003F000015011092109310961F190819623941767
:10040000B9F305C0015011092109310911F1908199
:1004100096239413F7CFC12CD12CE12CF12C0AC0D8
:100420008FEFC81AD80AE80AF80A0C151D052E0520
:100430003F0579F080818623841791F36C2D7D2D03
:100440008E2D9F2D1F910F91FF90EF90DF90CF90F9
:10045000089560E070E080E090E01F910F91FF90C0
:10046000EF90DF90CF900895789484B5826084BD3A
:1004700084B5816084BD85B5826085BD85B58160A8
:1004800085BD80916E00816080936E001092810026
:1004900080918100826080938100809181008160E1
:1004A00080938100809180008160809380008091A2
:1004B000B10084608093B1008091B000816080932E
:1004C000B00080917A00846080937A0080917A00F5
:1004D000826080937A0080917A00816080937A00B4
:1004E00080917A00806880937A001092C10061E068
:1004F00084E00E94D70061E085E00E94D70061E0BF
:1005000086E00E94D70061E087E00E94D70061E0AA
:100510008AE00E94D70061E083E10E94D70061E099
:1005200083E00E94D70060E082E00E94D70062E092
:100530008EE00E94D70060E083E00E94A90060E0A6
:100540008AE00E94A90060E083E10E94A90060E0C7
:1005500084E00E94A90060E085E00E94A90060E0BC
:1005600086E00E94A90060E087E00E94A90043E2C3
:10057000242E312C5CEE852E99249A94A92CB92C2A
:10058000C0E0D0E061E083E00E94A900C1010197D2
:10059000F1F760E083E00E94A900ECE9F0E06491EB
:1005A000E8E8F0E08491E82FF0E0EE0FFF1FE85953
:1005B000FF4F8591949100E412E42FE030E0462F44
:1005C0000E94EF01611571058105910529F06F5FAA
:1005D0007F4F8F4F9F4F9F700E945E052EEA37E43A
:1005E0004BE652E40E94B6046B017C01C09200010C
:1005F000D0920101E0920201F0920301ECEBF0E0F5
:100600008491E8EAF0E06490E4E9F0E07490772007
:1006100009F4C0C081110E948000E72DF0E0EE0FC8
:10062000FF1FE859FF4FA591B4918C91682209F4FE
:10063000B1C060E08AE00E94A90061E083E10E940D
:10064000A90020E030E040EA51E4C701B6010E9471
:1006500044042B013C012AE037ED43EA5CE30E94AD
:10066000150620E030E0A9010E944504A301920193
:100670000E9445042B013C01A701960160E070E057
:10068000CB010E94440420E030E0A9010E9415063D
:100690009B01AC01C301B2010E9445046B017C01C6
:1006A00020E030E0A9010E94B10487FF4CC0C701DF
:1006B000B6010E9428059B01AC01AFEFB0E00E949B
:1006C0000804A50194010E94E903CA01B9010E942E
:1006D00060056B017C010E949501C701B6010E9473
:1006E00028056B0185E00E941301B60186E00E9497
:1006F00013010E9470012B013C0181E4C82ED12C12
:10070000E12CF12C0E947001641975098609970982
:10071000683E734081059105A8F3F1E0CF1AD10836
:10072000E108F10828EE420E23E0521E611C711C04
:10073000C114D104E104F10429F7209709F422CF70
:100740000E9400001FCFC701B6010E9428059B012F
:10075000AC01AFEFB0E00E94080428E230E040E0D6
:1007600050E00E94E903CA01B9010E9460056B01D3
:100770007C0120E030E04FE753E40E941006181699
:1007800034F4C12CD12C9FE7E92E93E4F92E0E947A
:100790009D01A3CF61E08AE00E94A90060E083E1AF
:1007A0000E94A90020E030E040EA51E4C701B60110
:1007B0000E94B10487FF0AC00E9495016FEF70E0AC
:1007C00085E00E9413016FEF70E090CF0E949D01C1
:1007D000F5CF052E97FB1EF400940E94000457FDF0
:1007E00007D00E94130407FC03D04EF40C940004BD
:1007F00050954095309521953F4F4F4F5F4F08954D
:1008000090958095709561957F4F8F4F9F4F08957C
:100810000E943504A59F900DB49F900DA49F800D5C
:10082000911D11240895A1E21A2EAA1BBB1BFD01E4
:100830000DC0AA1FBB1FEE1FFF1FA217B307E407BF
:10084000F50720F0A21BB30BE40BF50B661F771F17
:10085000881F991F1A9469F76095709580959095F7
:100860009B01AC01BD01CF010895A29FB001B39FD0
:10087000C001A39F700D811D1124911DB29F700DA9
:10088000811D1124911D08955058BB27AA270E944D
:100890005C040C94D6050E94C80538F00E94CF0570
:1008A00020F039F49F3F19F426F40C94C5050EF49A
:1008B000E095E7FB0C94BF05E92F0E94E70558F38C
:1008C000BA17620773078407950720F079F4A6F535
:1008D0000C9409060EF4E0950B2EBA2FA02D0B01F7
:1008E000B90190010C01CA01A0011124FF27591B75
:1008F00099F0593F50F4503E68F11A16F040A22F7B
:10090000232F342F4427585FF3CF469537952795EB
:10091000A795F0405395C9F77EF41F16BA0B620BEA
:10092000730B840BBAF09150A1F0FF0FBB1F661F31
:10093000771F881FC2F70EC0BA0F621F731F841F74
:1009400048F4879577956795B795F7959E3F08F09A
:10095000B0CF9395880F08F09927EE0F979587955C
:1009600008950E949B0508F481E008950E94CA043E
:100970000C94D6050E94CF0558F00E94C80540F09F
:1009800029F45F3F29F00C94BF0551110C940A061D
:100990000C94C5050E94E70568F39923B1F355232C
:1009A00091F3951B550BBB27AA2762177307840782
:1009B00038F09F5F5F4F220F331F441FAA1FA9F318
:1009C00035D00E2E3AF0E0E832D091505040E69506
:1009D000001CCAF72BD0FE2F29D0660F771F881F67
:1009E000BB1F261737074807AB07B0E809F0BB0B5A
:1009F000802DBF01FF2793585F4F3AF09E3F51056E
:100A000078F00C94BF050C940A065F3FE4F3983E1F
:100A1000D4F3869577956795B795F7959F5FC9F756
:100A2000880F911D9695879597F90895E1E0660FD7
:100A3000771F881FBB1F621773078407BA0720F050
:100A4000621B730B840BBA0BEE1F88F7E0950895B9
:100A50000E942F056894B1110C940A0608950E9413
:100A6000EF0588F09F5798F0B92F9927B751B0F04C
:100A7000E1F0660F771F881F991F1AF0BA95C9F722
:100A800014C0B13091F00E940906B1E008950C94B1
:100A90000906672F782F8827B85F39F0B93FCCF364
:100AA000869577956795B395D9F73EF4909580959F
:100AB000709561957F4F8F4F9F4F0895E89409C0BF
:100AC00097FB3EF490958095709561957F4F8F4F81
:100AD0009F4F9923A9F0F92F96E9BB279395F69597
:100AE000879577956795B795F111F8CFFAF4BB0F15
:100AF00011F460FF1BC06F5F7F4F8F4F9F4F16C079
:100B0000882311F096E911C0772321F09EE8872F02
:100B1000762F05C0662371F096E8862F70E060E0BE
:100B20002AF09A95660F771F881FDAF7880F969537
:100B3000879597F90895990F0008550FAA0BE0E8DB
:100B4000FEEF16161706E807F907C0F0121613068F
:100B5000E407F50798F0621B730B840B950B39F4CF
:100B60000A2661F0232B242B252B21F408950A2635
:100B700009F4A140A6958FEF811D811D089597F975
:100B80009F6780E870E060E008959FEF80EC089533
:100B900000240A941616170618060906089500245C
:100BA0000A9412161306140605060895092E0394D6
:100BB000000C11F4882352F0BB0F40F4BF2B11F44A
:100BC00060FF04C06F5F7F4F8F4F9F4F089557FDA9
:100BD0009058440F551F59F05F3F71F04795880FAB
:100BE00097FB991F61F09F3F79F087950895121642
:100BF00013061406551FF2CF4695F1DF08C01616EE
:100C000017061806991FF1CF86957105610508949E
:100C10000895E894BB2766277727CB0197F90895B5
:100C20000E949B0508F48FEF08950E9428060C94FB
:100C3000D6050E94C80538F00E94CF0520F0952304
:100C400011F00C94BF050C94C50511240C940A06F0
:100C50000E94E70570F3959FC1F3950F50E0551F73
:100C6000629FF001729FBB27F00DB11D639FAA2701
:100C7000F00DB11DAA1F649F6627B00DA11D661F50
:100C8000829F2227B00DA11D621F739FB00DA11D71
:100C9000621F839FA00D611D221F749F3327A00D2B
:100CA000611D231F849F600D211D822F762F6A2FC7
:100CB00011249F5750409AF0F1F088234AF0EE0F2C
:100CC000FF1FBB1F661F771F881F91505040A9F759
:100CD0009E3F510580F00C94BF050C940A065F3FBF
:100CE000E4F3983ED4F3869577956795B795F79595
:100CF000E7959F5FC1F7FE2B880F911D969587950D
:080D000097F90895F894FFCF64
:00000001FF
